:020000022000DC
:106000000000042061620200B9620200BB6202006B
:10601000BD620200BF620200C16202000000000017
:10602000000000000000000000000000C362020049
:10603000C562020000000000C7620200C9620200DF
:10604000FD960200CF620200BD9B0200D3620200F7
:10605000D5620200D7620200199A0200F59B020085
:10606000DD620200DF620200E1620200E362020020
:10607000E5620200E7620200E9620200EB620200F0
:10608000ED6202004D700200F1620200F362020054
:10609000E9700200F762020035EE0200FB620200C6
:1060A000FD620200FF62020031A2020003630200EF
:1060B0000563020007630200CB620200CB620200AC
:1060C000096302000B6302000D6302000F6302000C
:1060D00011630200136302001563020017630200DC
:1060E000196302001B6302001D630200CB62020001
:1060F000CB62020021630200CB6202001F63020038
:10610000364937480A1A02D0072291438D4635494D
:1061100035480A1A06D00722914381F309880222E2
:1061200082F3148831483249324A00F045F8324847
:106130003249334A00F040F832483349334A00F0DC
:106140003BF833483349344A00F036F83348344991
:10615000344A00F031F834483449354A00F02CF81C
:1061600034483549354A00F027F83548354900228A
:1061700000F02DF834483549002200F028F8344862
:106180003449091A082903DB002202600430016047
:10619000314A90471F482049884205D002680430A0
:1061A00003B4904703BCF7E700208646EC46002086
:1061B00000212A4A9047FEE7884207D0521A05D0AC
:1061C000037801300B700131013AF9D170478842F0
:1061D00002D002700130FAE770470000000004208E
:1061E00000E003200000042000000420840A0300D3
:1061F000F42A0020502B00202463020024630200B4
:106200000AF50200840A0300F42A0020F42A002080
:1062100098F6020098F6020098F6020098F602003E
:1062200098F6020098F6020098F6020098F602002E
:10623000840A0300E00A0300502B0020502B0020AA
:10624000502B0020B84B0020B84B0020B84B00204A
:10625000B84B0020B86B00208562020089AC0200B8
:106260000F484FF00701884385460E4880470E4887
:10627000016841F470010160BFF34F8FBFF36F8F6E
:10628000FFF73EBF09480A490A4A884207D0521A16
:1062900005D0037801300B700131013AF9D1704714
:1062A000000004203D92020088ED00E03CF6020070
:1062B000982A0020F42A0020FEE7FEE7FEE7FEE72A
:1062C000FEE7FEE7FEE7FEE7FEE7FEE7FEE7FEE7A6
:1062D000FEE7FEE7FEE7FEE7FEE7FEE7FEE7FEE796
:1062E000FEE7FEE7FEE7FEE7FEE7FEE7FEE7FEE786
:1062F000FEE7FEE7FEE7FEE7FEE7FEE7FEE7FEE776
:10630000FEE7FEE7FEE7FEE7FEE7FEE7FEE7FEE765
:10631000FEE7FEE7FEE7FEE7FEE7FEE7FEE7FEE755
:04632000FEE700BFD5
:106324007047000007B5044B0093044A402300F073
:1063340032F803B05DF804FB45630200512B0020E2
:106344002DE9F84389461446B2B10F4B0F4E03258D
:10635400002743F00108224609EB0701002004F05E
:1063640013FF0744241A48B933782BB14FF47A4009
:10637400C047013D02D13570BDE8F8830123337075
:10638400002CE8D1F8E700BFA0F60200502B002053
:10639400704704F058BFF0B595B01C461646084641
:1063A4000D4602F058FE1A9B0D93CDE908640024B3
:1063B4002346082205A928460A948DF82C400C94FB
:1063C40002F085FE079B0293BDF81830ADF80C303F
:1063D400BDF81A30ADF80E309DF814308DF8114028
:1063E40003F00302012A1DD1BDF81440059EC3F336
:1063F400C203C4F383148DF81030A20008230EA93D
:10640400284602F064FEC6F3952608AB00932246A4
:1064140002AB0EA9304600F071FB284602F01FFEC5
:1064240015B0F0BD022AF8D1BDF81640C3F3C2037B
:10643400A4098DF810300827082C264628BF082602
:106444003B4632460EA9284602F041FEA41B08AB87
:1064540002AA31460EA8374400F0B4FB002CEBD15D
:10646400DBE7000010B5054CFFF793FF042120463D
:1064740000F0B4FA0123637210BD00BFF42A0020B7
:10648400037813F0030F03F0040202D012B910468C
:106494007047B2B103F00303012B03D0022B09D0E0
:1064A400012070470A6800880232C0F38310024456
:1064B4000A60F5E70B684288023303EB92130B6022
:1064C400EEE70B684288013303EB92130288F4E78A
:1064D4002DE9F04F89B00546861C08A8484C019266
:1064E40000230F4600F8113D00F0E8FF23683B60ED
:1064F400D4E901231344226801339B1A04F21C4794
:1065040004F5836A04F21448B3421AD3019A0023AF
:10651400002A6DD0012262F3010343F0040365F302
:1065240089132168A2689DF80F000A4003320E44C3
:1065340044F82230266000F0E5FF012009B0BDE8F0
:10654400F08F0121384602F047F8504602F05DF81A
:10655400404602F05AF80DF120096068D4F808B0FA
:1065640049F8100D00EA0B00033004EB80004946A3
:10657400FFF786FF049BB0B90BEA030204EB820227
:10658400D16805919A1C013303EA0B0B04EB8B0CC5
:1065940001F00303012B0492DCF80CB020D0022B91
:1065A40004D083460BE00BEA0300DDE7BDF81630A8
:1065B4009B0903334FEA1B4B02EB930304934046BE
:1065C40002F026F808B1049B63605946384602F08D
:1065D40003F8D4E901231344226801339B1A93E797
:1065E400BDF81430C3F383134FEA1B4B1344E5E7A0
:1065F400022262F3010343F0040365F39F5390E71F
:10660400642C002008B50E4B0E48FF229A6000222D
:10661400C3F81824C3E90022C3F8142483F82024FF
:1066240002F0D2FC38B9084A084B09499B1ADB0826
:1066340002469A4200D108BD21F822200132F8E72F
:10664400642C0020FCF502006CF50200FCF502004D
:10665400982A002030B50B4C79B10B4A0B49121B18
:10666400D20800239A4201D1002030BD01EB8305FA
:106674006D88854202D00133F4E7034654F83300B1
:10668400F3E700BF6CF50200FCF50200982A002035
:10669400094B013903EBC000032909D8DFE801F0F5
:1066A4000A02040604207047007970474079704755
:1066B40000207047022070476CF50200034BD3E9B9
:1066C4000030C31A58425841704700BF642C002060
:1066D4002DE9F04387B0FFF7F1FF0746002840F0AB
:1066E400F5807B4DC5F81804BFF34F8F6868AC681C
:1066F4000DF1180848F8100D2040033005EB800018
:106704004146FFF7BDFE029B064600285FD104EA1E
:106714000302991C013305EB8202234005EB83033A
:10672400D268DB68049302F00303022B0392029104
:1067340062D1BDF80E3067484FEA9318B8F1500F94
:10674400C14628BF4FF0500969F38F1309F10801BE
:10675400ADF80E3002F050FC0746002800F0A4808B
:1067640002F079FC334603A90822384602F086FC7D
:10677400029924EA01060136B600B14535D95FFA1B
:1067840089F97EB3F6B2A9EB0609214003315FFA19
:1067940089F4B146504E05EB810108234A46384638
:1067A40002F06CFC36B109F1080322463146384642
:1067B40002F064FC029B08F1030803EB98030293C4
:1067C400D5F81834002B4AD1D5F8104458E02A687B
:1067D4009A4204D86A60384607B0BDE8F08304EAF8
:1067E40003008AE73C493446D7E7214003310823B4
:1067F4004A4605EB8101DAE7012B55D1BDF80C308F
:106804003448C3F38311062928BF062161F3891391
:1068140002318900ADF80C3002F0EEFB0746002887
:1068240042D002F018FC3346082203A9384602F08D
:1068340025FCBDF80C20C2F38312B31C96424FEA28
:106844008303BDD202994A1C21400331029205EB15
:1068540081010422384602F011FC0136E9E738468A
:1068640002F0FDFBFFF72AFF80F00100C7B2B2E798
:10687400637A23B1236839461B68204698476468C5
:10688400002CF5D1384602F0EAFB06A800F8114DB9
:1068940000F014FED5F818340BB9029B6B609DF818
:1068A400070000F02FFEDDE7D5F8104444B90B4B88
:1068B4000B491888000440F0020000F06BF8D1E79F
:1068C400236820469B6898476468EFE7002782E7BF
:1068D400642C0020FCF50200702C0020B42A002057
:1068E400B4F602002DE9F74F284C80460F46924635
:1068F40001A9012218469B46D4F80890FFF7E8FD49
:1069040088B3019D0026A91C5E4506EB010234D123
:1069140000211F4801F01FFE80F310006A1C02EAE8
:10692400090204EB8202000405EA0903033340EA86
:106934001840D06014F8232068F3C50204F823201B
:1069440034F8232066F3891224F8232054F82320F2
:10695400012167F39F2244F8232061F301026FF3BE
:10696400820204F8232094F820341BB1FFF7B0FE10
:106974000028FBD103B0BDE8F08F09EA020204EB62
:1069840082025AF82630D3600136BDE7642C002019
:106994008030002000231A46FFF7A4BF13B502ACD1
:1069A400012344F8042D2246FFF79CFF02B010BDDA
:1069B40007B5CDE9002302236A46FFF793FF03B02E
:1069C4005DF804FB1FB5CDE90123069B039301AADF
:1069D4000323FFF787FF05B05DF804FB0F4A30B5CA
:1069E400D2F810440023214641B90372D2F810446E
:1069F4004CB9C2F810044160184630BD0D7A9D426E
:106A040005D04968F0E7626842606060F4E70133EA
:106A14000A2BE8D14FF0FF33EEE700BF642C0020CF
:106A2400084A38B50123D2F8104482F820341D46B0
:106A340004B938BD2368657220465B68984764686A
:106A4400F6E700BF642C0020037A052B10B50C4632
:106A54000FD0437A23B1084A0849204601F039FE91
:106A64000749204601F035FE2046BDE8104001F0FC
:106A740025BE002AF8D0F3E70FF7020014F702004E
:106A840034F70200C38873B504460D4633B1144A83
:106A940000921449144A284601F01BFE217A052964
:106AA4001CD0637A4BB1A088FFF7F2FD0F4B10495D
:106AB40053F82020284601F00CFE227A0D4BA088C2
:106AC40053F822600021FFF7C5FD0B490346324607
:106AD400284602B0BDE8704001F0FBBD02B070BDB5
:106AE4000FF702001FF7020017F70200DCF602009E
:106AF40014F7020044F7020037F702002DE9F043CF
:106B040085B01F460C9D002306460C46904695F81A
:106B14000C902B7329463846FFF7B4FFB8F1060FE3
:106B240009D8DFE808F00412181F28334000314662
:106B3400284601F0CEFD002229463846FFF784FF9F
:106B440085F80C9005B0BDE8F083226831462846EC
:106B540001F0BFFDEFE7D4E900233146284601F0F8
:106B6400B8FDE8E7A36800933146D4E9002328463A
:106B740001F0AFFDDFE7E3680193A36800933146BA
:106B8400D4E90023284601F0A4FDD4E72369029345
:106B9400E3680193A36800933146D4E900232846AF
:106BA40001F097FDC7E76369039323690293E368E0
:106BB4000193A36800933146D4E90023284601F0E9
:106BC40088FDB8E708292DE9F84F80460E46174698
:106BD4001C4636D8002593F80C901D7319461046B0
:106BE400FFF750FFDFF87CA0DFF87CB0AE422AD973
:106BF40018F805205946204601F06BFD0135082D93
:106C0400F4D11649DFF864B0204601F062FD002596
:106C1400AE421DD918F805A0504608F031FB0028F3
:106C240014BF52462E225946204601F052FD01352A
:106C3400082DEDD1012221463846FFF705FF84F8DF
:106C44000C90BDE8F88F5146204601F042FDD5E78F
:106C54000349204601F03DFDE9E700BF0AF70200C1
:106C640008F7020006F7020000F702000CF7020022
:106C74002DE9F04F3B4F89B000263B4B1B78F5B212
:106C8400AB4202D809B0BDE8F08F384B196811F84F
:106C940035000124A0F12002C0F1200304FA02F916
:106CA40024FA03F349EA0309D7E9002304FA00F8B4
:106CB400CDE9042302EA080203EA0903134301EBC2
:106CC400C50B4CD0DDE9042322EA080223EA0903B8
:106CD400C7E90023079102F08DFE0799844611F855
:106CE4003500A0F12002C0F1200324FA03F304FAD2
:106CF40002F21A4304FA00F300931D4B0192DDE9FA
:106D04000045D3E9002314401D4022462B465FFA78
:106D14008CF40025CDE90445049CA0F12005AC4089
:106D24000394049CC0F1200124FA01F1039C0C4358
:106D34000499039481400291DDE90245AB4208BF06
:106D4400A2420CD19BF801104B1E59425941A1EBB0
:106D54000C02DBF804305142514103B1984701362B
:106D64008BE700BFB830002088300020C0300020FE
:106D7400B03000202DE9F84F0646244800F08EFB81
:106D8400002841D10123A6F12001C6F1200203FA13
:106D940001FB23FA02F203FA06FA1D4BD3E90001C0
:106DA4004BEA020B00EA0A0801EA0B0958EA090255
:106DB4001F4623D1304602F01DFE164BB8B1D3E96D
:106DC400000140EA0A0441EA0B05C3E90045D7E99A
:106DD40000234BEA0305104B0C4819684AEA0204E5
:106DE400C7E900450022BDE8F84F00F013BBD3E922
:106DF400000120EA0A0421EA0B05E6E720EA0A0476
:106E040021EA0B05C3E90045BDE8F88F9030002066
:106E1400B8300020B03000208C300020042A2DE946
:106E2400F34105460C4616463AD902F009FDD8B19D
:106E34001C4B1D491D601D4BDFF884801C701C4BCE
:106E440000221E600023C1E900231A49C1E900237E
:106E5400013CE4B200260327FF2C0CD1164A174844
:106E6400002100F0C5FA03E002F0B2FC0028DFD0F4
:106E740002B0BDE8F08123B205EBC30201A9927808
:106E84008DF8052015F833008DF8066042468DF81C
:106E9400047002F0DFFC013CE4B20028DCD0E7E738
:106EA4000720E5E7C0300020B03000208830002003
:106EB4008C300020B8300020756C0200A4F702006A
:106EC400796D020070B5084D084E00242B789C4261
:106ED40001D3002070BD3368012113F8340002F09F
:106EE4003FFD0134F2E700BF88300020C0300020AD
:106EF4001FB50021039001AA44F20100CDE901115C
:106F040000F004F805B05DF804FB000010B572B69B
:106F1400FFF786FDFFF7DCFB0028FBD1104C11497D
:106F24002088000440F00100FFF734FD0E4B1B687D
:106F3400DB0700D500BE20880C49000440F00200A5
:106F4400FFF728FDBFF34F8F09490A4BCA6802F4C3
:106F5400E0621343CB60BFF34F8F00BFFDE700BF78
:106F6400B42A0020A8F70200F0ED00E0B4F7020014
:106F740000ED00E00400FA05094A537891780133E2
:106F8400DBB2994208BF0023117899421FBF0370F6
:106F94005078182303FB002014BF043000207047EE
:106FA400C430002073B5054602A8002400F8014D42
:106FB4000E4600F083FA0DF10600FFF7DDFF90B1F5
:106FC40006700A4B9DF8062045605A709DF807002C
:106FD40000F098FA24B9064B4FF48012C3F800214C
:106FE400204602B070BD0424F0E700BFC430002086
:106FF40000E100E0024B4FF43C6043F0010318470A
:10700400D0F7020038B50C4B0C4C4FF40032C3F8E7
:10701400802001254FF48033C4F84833C4F8083382
:107024006560FFF7E7FF064BA56000241C60FFF7CF
:10703400E1FF044B1C7038BD00E100E0001001408A
:10704400E0310020D1310020F8B51F4B1F491B68E7
:107054000025C1F84051C1F84451C1F84851C1F864
:107064004C51C1F80051C1F804514BB3D1F8044557
:1070740017490968641A24F07F442F461A68A2420B
:1070840009D8A41A15441A7CDE691AB11F74D3E90D
:1070940005209047AEB90F4B0F4A197813788B42ED
:1070A40005D10133DBB2022B08BF00231370127821
:1070B4000A4B43F822500A4B4FF48012C3F80021C4
:1070C400F8BD3346DAE700BFE43100200010014088
:1070D400E0310020DC310020DD310020D4310020FB
:1070E40000E100E02DE9F74F9E4A9F4913780978A3
:1070F4009E4D99423CD00133DBB2022B08BF0023E2
:1071040013709B4912789B4B0F6853F822003B186D
:1071140023F07F4300220B602B68164614469446E6
:1071240013B942B12B6006E0196881420ED902B14D
:107134002B60091A19604FF001082B68DFF83CA294
:1071440000930027BEB9DFF83CB260E0401A0C445B
:10715400D968C3F800C0D3F81CE031B13A1922F061
:107164007F42C3E90121DE611E4601227346D7E74F
:107174000026B046E1E73446F6697D4A6368126842
:10718400DFF804C2A068991A21F07F41614500F23A
:10719400A58001442160012222742A680023C4E9E5
:1071A4000133E361002A40F0A2802C60CAE75A1C34
:1071B4009BF80210D2B291428BF8002004BF002247
:1071C4008BF80020182202FB03B32A6819799C6803
:1071D400022974D003297ED0012918D1217CB1B9A8
:1071E400DA6862601A69A2605A699B69A361624B9A
:1071F400E2601B78002BC0D06160BEE79C4200F0C7
:1072040093809946DB69002BF8D1002323749BF803
:1072140000309BF801209A42C9D12B682FB9009AFB
:10722400934202D1B8F1000F43D0002B79D0D3F8A8
:1072340000A0524D4E4BD5F804751C68DFF84C8104
:107244003E1B98F8003026F07F4603369BB94FF476
:107254008033C5F84433C5F80433494B4FF4003246
:107264004FF00109C3F880211A60C5F80090FFF7B8
:10727400C1FE88F80090B2452CBF5444A41924F0F0
:107284007F44C5F84045D5F80435DB1B23F07F4324
:10729400E41B033324F07F44A3420AD9D5F8043510
:1072A400C5F84035FFF7A6FE354B4FF40032C3F85E
:1072B4000021314B00221A7003B0BDE8F08F134651
:1072C4009146A0E71174D2690123002AFAD1002B58
:1072D4009DD02A609BE700231946F6E7D31A23F0D2
:1072E4007F43834234BFC31A0023236053E72168DA
:1072F4001368994213D8591A1160E26155E7091AC3
:10730400D8691A4638B1034618688842F7D3401A38
:107314001860184613462160E061DC6112E71346E9
:10732400F2E7FFF76FFEC4E74C450DD1D3692B603C
:1073340053B90F4801920121CAF8081003600E4B9B
:107344001970FFF757FE019AE1692368C9F81C1008
:1073540011B1086803440B602B689A4218BF0127D7
:1073640053E700BFDC310020DD310020E431002090
:10737400E0310020D4310020D03100200010014041
:1073840000E100E0C4300020FEFF7F00D131002086
:1073940008B5FFF737FE104B00200B2218809A70B7
:1073A4000E4B18600E4B18700E4B18700E4B4FF4AA
:1073B4008012E021C3F8802183F814131A6002F1CB
:1073C4008042A2F56F22C2F8080583F81113074B17
:1073D400D2F804251A6008BDC4300020E43100202E
:1073E400DC310020DD31002000E100E0E03100204C
:1073F400074B9B784BB132B128B10368187C20B994
:1074040059745A617047072070470820704700BFBD
:10741400C43000202DE9F7431D4FBB7805460E46C6
:1074240090469BB390B304292ED9436973B3437C2C
:1074340002A80024012B00F8014D0CBF8946A14687
:1074440000F03CF80DF10600FFF796FDD0B10123E2
:107454000370104B4560D3F80435C0E90498C0E9C3
:1074640002369DF806307B709DF8070000F04AF85C
:1074740024B9094B4FF48012C3F80021204603B00D
:10748400BDE8F0830424EFE70724F7E70824F5E7D1
:10749400C43000200010014000E100E0064A927868
:1074A4003AB130B1426922B1002202740221FFF7DD
:1074B40079BD0820704700BFC430002070B5EFF3D9
:1074C400108672B60C4A946801239CB993600B4BE6
:1074D4000B4DD3F8801029401160C3F88050D3F8C5
:1074E400841051604FF0FF32C3F88420047006B951
:1074F40062B670BD0370FAE7E831002000E100E0F5
:10750400FC06FFBD084B9A6810B55AB150B9EFF3A9
:10751400108272B605491C680C605C684C60986007
:1075240002B962B610BD00BFE831002000E100E0FE
:1075340070B5064E0546002456F824300BB1284693
:1075440098470134042CF7D170BD00BF00320020ED
:10755400033080B240F2FD33984230B51FD8124B4D
:107564001A783AB91C895D892C440444A4B2B4F550
:10757400806F0AD31A7DA2B99A8BDC8B2244024411
:1075840092B2B2F5806F0CD201220A801446142202
:1075940002FB04335A8910445881002030BD09206D
:1075A400FCE70720FAE700BF343200200B4A0C4BFB
:1075B4005188142000FB0131CB6833B90420496899
:1075C40010700122074801F0F1BA0523064913702F
:1075D40002238B80012200230968F3E7183200207C
:1075E40034320020E02A0020EC32002007B50023CA
:1075F40005490093054A09680548082301F052FA31
:1076040003B05DF804FB00BFEC320020E4F7020095
:10761400E02A002007B50023009301460823034A0B
:10762400034801F03FFA03B05DF804FBDCF7020005
:10763400E02A002013B500230C46009301460423DE
:10764400074A084801F02EFA38B9074B142202FB06
:1076540004340123237402B010BD0E20FBE700BFE5
:10766400D8F70200E02A00203432002037B50A4857
:107674000A4B42689C8819685388032503330570B4
:107684009BB2002000909B0001EB8401044801F0B0
:1076940009FA03B030BD00BF18320020EC320020DC
:1076A400E02A002010B50146044800F088FE1C22A0
:1076B4000446002107F048FE204610BD002B0020A0
:1076C4004388033300EB8303994209D382884FF63E
:1076D400FF739A4206D00088B0FA80F040097047E0
:1076E40002207047012070472DE9F8430223DFF898
:1076F40060800B800D46174600F5805600F10804A3
:107704004FF00109B4420FD2236801330CD0314643
:107714002046FFF7D5FF48B10FB187F80090022843
:107724000BD14FF480632B80BDE8F883A368D8F8AD
:107734000020934201D9C8F800302B8862880333B3
:1077440013442B806388033304EB8304DAE700BF1C
:107754002C320020144A142303FB002070B50B685C
:1077640044680D4604F580569BB15C88033403EBF2
:107774008404B4420BD22368013308D03146204636
:10778400FFF79EFF012809D005D30228F1D100207C
:1077940003E00834EDE72C60012070BD63880333F7
:1077A40004EB8304E5E700BF34320020436873B57B
:1077B40005460C466BB3254AD1688B4229D312691E
:1077C400934226D813F0030223D121490089098961
:1077D40088421ED12868996888421AD11D49486890
:1077E400834203D900F5805083420ED38A699342C1
:1077F4000DD902F58052934209D20123238000203F
:10780400B0FA80F0400902B070BD1346F6E70A20D2
:10781400F6E7002323801E462388012B01D900208C
:10782400F1E7019601A92088FFF794FF18B923888E
:1078340001332380F0E7019B2A6899689142F1D1D2
:107844006B60034B1B892B81DDE700BFE02A00201E
:1078540018320020343200202DE9F8431C461E4B18
:107864001B7806460F461546002B30D0002A30D030
:107874007CB3DFF86C804FF01409A388012B01D985
:107884000A201AE009FB03F318F80330BBB1A388FC
:107894000133A380F1E723681EB1998832889142AD
:1078A4000DD11FB119883A88914208D19A68C5E967
:1078B40000230A4B1B892B810020BDE8F883214655
:1078C400A088FFF747FF0028E5D12060DFE702200A
:1078D400F3E70520F1E700BF103200201832002042
:1078E4003432002008B5074B191D5888FFF732FFC2
:1078F40018B1BDE80840FFF7B9BEBDE80840FFF77E
:1079040055BE00BF183200202DE9F04FA04FDFF81C
:10791400A49289B00646B8463B6823B949469D48B7
:1079240000F087FD3860D8F8005029784B1E052BED
:1079340000F21281DFE813F00600760076000601FB
:1079440006015D0126B1944B00225A60012424E013
:107954002B79032B1DD8DFE803F01502424D8F4924
:107964000B78022B084631D00B7D022B4FF001031C
:107974002ED114225343C2180020C8545068FFF774
:1079840049FE03E001232B71FFF730FE002800F0CD
:10799400D380814B00225A600E241422002103A8B4
:1079A40007F0D2FC41F61D539C4208BF0024D8F8CE
:1079B400003004941A78023A042A00F2D381DFE8F2
:1079C40012F0B401C001E301EB01F2010023D0E79E
:1079D400714A13700023536041F61D54DDE770496A
:1079E4007048002302222B718A800122096801F069
:1079F400DDF8CBE76A4C00262E712068674DFFF74F
:107A040009FE694BD4F800C05A8814235343EA187A
:107A1400EE5451682160A188C2F804C01181022289
:107A2400A280B3E7B5F814A0AA7DDFF870B1AEB1B7
:107A3400022AEB8806D9142101FB0AB1DA1C088951
:107A440002440A81142202FB0ABAC3F57F43BAF83E
:107A54000A20FD331344AAF80A3077E7142303FB02
:107A64000AB318895C6804EB8004062A05D8DFE8A9
:107A740002F0264C34421C5866000F24AA7DEB8881
:107A8400022A06D9142101FB0AB1DA1C088902442E
:107A94000A81142202FB0ABAC3F57F43BAF80A200A
:107AA400FD331344AAF80A3077E7404840490023DD
:107AB4004360AB690360FFF779FE00285AD00223C4
:107AC400AB75002300930423EA182146354800F0DF
:107AD400E9FF002830D00E24D0E72B69002B0CBF1F
:107AE40001230323AB750023009305F10C02042347
:107AF40004F10801EAE70123AB750022EB88009248
:107B04009B002A6904F10C01E0E7032914BF062352
:107B14000523AB7500230093042305F10802E11843
:107B2400D4E70623AB75224B1988204B5868FFF71E
:107B340081FD04460028A1D109B0BDE8F08F41F6CB
:107B44001D549BE7002E7FF401AF2B79012B33D01A
:107B540004D3022B3FF440AF0F241EE702232B7102
:107B64000DF10A01EB68039303A8CDE90466FFF75E
:107B74001DFE08B90A2410E70498BDF80A1083888A
:107B8400EB8003882B81FFF755FD044627E000BFF7
:107B940030320020002B002010320020343200202C
:107BA400EC320020E02A002018320020F4310020BA
:107BB400F832002028320020DFF808A203AA534636
:107BC4003146A81DFFF748FE044660B9BAF8041010
:107BD4000498FFF72FFD04460A2C3FF4FDAE002C59
:107BE4007FF4DBAEA8E708223146504607F0ACFB31
:107BF400F2E7002E7FF4AAAE6D4B1A7BB2B11E736E
:107C04001A78013A062AA7D801A151F822F000BF38
:107C1400BB7C0200E17C0200FF7C0200057D0200C7
:107C24005D7B02000B7D0200217D02001A78072A89
:107C3400E6D801A151F822F05D7C0200057C020027
:107C4400057C0200837C0200977C0200B77C020062
:107C5400B77C02007F7C02001A89564901321A81DE
:107C640000225A801A730A78B2FA82F252099A727E
:107C74000A7DB2FA82F25209DA72012207E04E4911
:107C840058688A884088033202448A8002221A7023
:107C9400B6E7484C5A884849142505FB024208684F
:107CA400546850608888108102228A800C60062201
:107CB400EDE70722EBE79A7A32B9DA7A8AB9002239
:107CC4001A705A805A6087E63A4900229A72CA6842
:107CD400002AF2D1097C0029EFD05A80FFF702FE76
:107CE40053E70022DA72334A116A0029E7D192F885
:107CF4002420002AE3D00122EFE7FFF7B7FC44E792
:107D0400FFF754FC41E706221A702A4A5B881421C3
:107D140001FB03235868FFF77DFC36E707221A703E
:107D240000225A60FFF762FC2FE701228DF80C2035
:107D34001A89ADF818209A88DB68ADF81A200593E3
:107D440010E002228DF80C201A89ADF818209A88C8
:107D5400ADF81A20DA689B7D05929A1F534253416D
:107D64008DF81C3003A8FFF7E3FB002649461348AF
:107D7400C8F8006000F088FB0121114800F037FCCE
:107D840000287FF4C9ADD7E603228DF80C20DA88E9
:107D9400ADF818201A89CFE70422DB888DF80C206F
:107DA400ADF81830DEE705238DF80C30DAE700BFB4
:107DB4001832002034320020EC320020002B002046
:107DC400E8320020FC3200204068FFF79DBD00002F
:107DD40008B50121044800F0F4FB18B9BDE80840D7
:107DE400FFF792BD08BD00BFE83200202DE9F34142
:107DF4009846354B1B7806460D46002B5BD0002970
:107E04005BD009884FF6FF73994258D06B88002BDA
:107E140055D06B689B0754D14AB92F890DF10201E3
:107E24003846FFF795FB30B102B0BDE8F081138806
:107E34005788ADF8023001A8FFF734FC044658B95E
:107E4400BDF80230214A142101FB03235889033869
:107E5400C01B58810820E7E700238375BDF8023072
:107E640083826B68036180F800800121184800F068
:107E7400B3FB2B882381B8F1030F6B88A38004BF65
:107E84000423A3754FF0000508BF3368E06008BF02
:107E9400A361E780658101A90E4800F0BAFA36B102
:107EA400E36833600C4B75601B89B5723381FFF74F
:107EB4008FFF0020B8E70220B6E70520B4E70420CE
:107EC400B2E70320B0E700BF1032002034320020B4
:107ED4002C320020002B00201832002008B5084B5B
:107EE4001A68042A09D01968064A42F821000121B7
:107EF400184600F071FB002008BD0C20FCE700BF11
:107F0400F4320020003200202DE9F04F89B0142211
:107F1400002103A807F018FA7B4A137803F0FF0145
:107F2400009190463BB103A8FFF702FB00263046C0
:107F340009B0BDE8F08F101D00F064FB0546002871
:107F4400F4D14FF010234FF080525B6911695269EC
:107F5400DFF8DCA1581C08BF02FB01F3CAF810309B
:107F64000022A3F540536949CAF80C30504600F08A
:107F74006BFD06460028DAD11C238C22644965482F
:107F840000F0E8F93746B3464FF003093446CDF81C
:107F940004A0019BD9680BEB010002465BF80110B9
:107FA400002835D05C4B994232D141685B4B9942F1
:107FB40015D0013399422BD1009BDFF86CA1002B23
:107FC40059D100225649CAF80000FFF78DFBBAF8D0
:107FD4000420022A14BF0822042217433AE051491C
:107FE4004FF0140C0CFB04FC01EB0C024FF0000EE0
:107FF40001F80CE050600CF110020CF1080C0A447A
:108004006144FFF771FB47F002070134A4B221E099
:1080140000F5805C1168013167D104329445F9D1CF
:10802400414A116829B9022101231060918000930B
:108034000EE0142262433B4B4FF0020E991803F8F2
:1080440002E03A4A486054800134A1F808E0A4B23E
:1080540047F001070BF5805BBBF5405F99D1B9F19F
:10806400010F88BF3D46EDB2022D02D0062D12D07D
:10807400DDB90B265BE72B4B1422624399184FF0B2
:10808400020C03F802C00134DAF800204A60A1F8B7
:1080940008C0A4B295E7012388F8003003A80023A0
:1080A400C8F80430FFF744FA41E702A8FFF7FAFAE8
:1080B400C8B10123013D03700A2D09D8DFE805F09A
:1080C40006080608070807080F110F0000230371AC
:1080D40002A9104800F09DF9FFF77AFE27E7032371
:1080E400F5E70223F3E7082621E70E491422624349
:1080F40001EB020C09F1FF39CCF8040003201FFA4C
:1081040089F9885481E700BF10320020E8F90200A1
:108114005C320020002B0020DEC0ADDEFE011EF12B
:10812400F032002034320020EC32002018320020DB
:10813400E02A002073B50D460446C8B1C1B10DF163
:108144000601FFF733FBA8B10B4BBDF806006668C8
:10815400142202FB003001210C3000F03DFA636868
:108164002E600C336B600123A372002002B070BD3B
:108174000520FBE70A20F9E73432002013B5044652
:10818400A8B10DF10601FFF711FB90B10B4ABDF840
:108194000630142101FB0323DA6862B1A27A52B1DA
:1081A400DA680020013ADA60A07202B010BD05203E
:1081B400FBE70A20F9E70620F7E700BF3432002086
:1081C4000B4B1B7837B504460D4663B168B10DF10E
:1081D40006012846FFF7BCF918B9BDF8063023801C
:1081E400658003B030BD0220FBE70520F9E700BF3E
:1081F40010320020104B1B7810B5B3B1B8B102880F
:10820400022A16D80D494388142404FB02129C1C2C
:1082140051898C420DDAC3F57F43FD330B445381FE
:10822400002303804380184610BD0220FCE705208C
:10823400FAE70420F8E700BF1032002034320020AF
:1082440002230022FFF7D2BD12B10223FFF7CEBDF5
:108254000520704718B103230022FFF7C7BD05208E
:1082640070470000104B1B7813B50446ABB14FF6B2
:10827400FF73984213D001A8FFF714FA88B10523BD
:10828400037001230371C48001A9084800F0C1F8F8
:10829400FFF79EFD002002B010BD0220FBE7042082
:1082A400F9E70820F7E700BF10320020002B002078
:1082B4000E4B1B7807B5A3B101A8FFF7F3F990B1F2
:1082C4000623037001A90A4800F0A3F8094B1A78A1
:1082D4000AB101221A73FFF77BFD002003B05DF899
:1082E40004FB0220FAE70820F8E700BF1032002060
:1082F400002B00201832002007B5ADF8060002A8B4
:1083040020F8041D01460DF10600FFF7A5FA03B09D
:108314005DF804FB13B502AC134624F8020D0A46BB
:1083240000202146FFF798FA02B010BD13B502AC45
:10833400134624F8020D0A4620460021FFF78CFA62
:1083440002B010BD20B119B103680B600020704762
:108354000520704710B561B1B2FBF3F403FB14249C
:10836400A4B244B9C0E9001484608281C381204668
:1083740010BD0E20FCE70920FAE782B050E8022F76
:10838400C188B2EB324F4FF0000317BF92B241EAFB
:10839400014142EA014104E04268B2EB324F08BFB6
:1083A400012340E80212002AE8D18DF807309DF835
:1083B4000730002B0CBF1120002002B0704737B5E6
:1083C40050E8013F9DB2C48925448489A54228BF51
:1083D4002D1B0489A54202BFBFF32F8F002207E0A3
:1083E400C5EA030540E80154002CE9D14FF001022D
:1083F4008DF803200193019B9DF803200B6002F08C
:10840400FF0322B10B880068184403B030BD18463E
:10841400FBE70A884B889A4209D150E8012FC2EA47
:10842400024240E80123002BF7D1012070470020CD
:10843400704737B550E8023F1FFAA3F5C488A54238
:1084440002BFBFF32F8F00220DE0C4892544848925
:10845400A54228BF2D1BC3EA054540E80254002C61
:10846400E8D14FF001028DF803200193019B9DF8A0
:1084740003200B6002F0FF0322B14B88006818440C
:1084840003B030BD1846FBE70A884B889A4209D1ED
:1084940050E8022FC2EA224240E80223002BF7D11F
:1084A400012070470020704701F01F024B09012191
:1084B400914000EB830000F063B84B0910B501F064
:1084C4001F040121A14000EB830000F04EF8E040BE
:1084D40000F0010010BD01F01F0301229A404B0976
:1084E40000EB8300D14300F061B84B0901F01F0198
:1084F40050F82300C84000F0010070472DE9F04710
:108504004E1E760980460F460136002558F8254050
:1085140008EB850AE44394FAA4F4B4FA84F44FEA29
:108524004519202C06D10135AE42EFD83C462046F1
:10853400BDE8F0874C44A742F5D921464046FFF7F1
:10854400BCFF0028F3D0DAF80040E44394FAA4F422
:10855400B4FA84F4E5E750E8002F0B4640E8003C09
:108564009CF0000FF7D11046704750E8002F42EA04
:10857400010340E8003C9CF0000FF6D11046704720
:1085840050E8003F43EA010240E8002C9CF0000F51
:10859400F6D11046704750E8002F02EA010340E884
:1085A400003C9CF0000FF6D11046704750E8003FA5
:1085B40003EA010240E8002C9CF0000FF6D11046BB
:1085C400704750E8002F02EB010340E8003C9CF0A8
:1085D400000FF6D11046704750E8003F03EB01024C
:1085E40040E8002C9CF0000FF6D11046704750E88C
:1085F400003FA3EB010240E8002C9CF0000FF6D1F1
:10860400104670470121FFF7B0BF0121FFF7B8BF43
:108614000021FFF7C0BF10B590B1D0E90123016874
:108624009B1ADBB20A60013BDBB2FF2B026802D16A
:108634000020107110BD11684C1C14600B70F2E71F
:108644000E20F7E737B5054602A8002400F8014DCF
:10865400FEF734FF2A686B68116899420ED9481EE8
:10866400106011F8014CEB68A98A01FB0434AB6873
:1086740011791B1ADBB2994238BF13719DF80700B8
:10868400FEF740FF204603B030BD37B5054602A8CB
:10869400002300F8013D0C46FEF710FF2A6813681A
:1086A400591C1160E968641AA98AB4FBF1F41C70BE
:1086B4009DF80700FEF726FF03B030BD826810B5B1
:1086C40004462AB143690168006998470023A360FE
:1086D40010BD0EB403B5039929B102AA04AB42F844
:1086E400043D00F06BF802B05DF804EB03B0704792
:1086F400826830B40468551C8560A154D0E9013205
:108704009A4202D330BCFFF7D9BF30BC7047000097
:108714002DE9F84F9946DDE90A4317468246884613
:108724000A460126BA420FD24E4538BF4E4613F0D0
:10873400010B01D164B900240125B9F1010F1AD943
:1087440009F1FF397D43F8E7B2FBF7F20136E9E7B7
:108754009B070ED5B9F1000F0CBF30252025A6428A
:10876400EAD2013C29465046FFF7C2FF002CF6D15D
:10877400E1E72025F3E7B8FBF5F39F42E2D9DFF800
:108784003890B8FBF5F3504619F8031005FB13882D
:10879400FFF7AEFFB5FBF7F5002DF2D1BBF1000FEB
:1087A40002D00CB1A64201D3BDE8F88F2021504677
:1087B400013CFFF79DFFF4E7FBF702002DE9F74FBB
:1087C400054690460E46002900F03A8116F8011B32
:1087D400002958D0252940F0D180002702E047F035
:1087E40001071646324612F8013B2D2BF7D0302BE9
:1087F40004D02B2B05D147F00407F2E747F002071A
:10880400EFE700242A2B06F101021BD1D8F800302F
:10881400191D1B68C8F800101C44164633782E2B0B
:108824001CD101364FF0000A314611F8012BA2F198
:108834003000092814D80A2303FB0A23A3F1300AC1
:108844000E46F1E712F8013CA3F130010929E5D8FD
:108854000A2101FB0434303C1646D3E74FF0000AEA
:10886400324612F8011B01F0FB0068281646F8D0C6
:10887400692916D054D8582970D00ED825297DD00E
:108884003378002BA2D12B7B002B00F0D980284613
:1088940003B0BDE8F04FFFF711BF632968D0642926
:1088A400EED1D8F80020D2F80090111D89EAE972BF
:1088B400C8F80010A2EBE9724FF0010B092A61DC41
:1088C400D34538BFD3462CB1B9F1000F01DB79078A
:1088D40000D5013CBA0702D5BAF1000F04D0FB075A
:1088E40002D4002C54D10024B9F1000F58DAC9F194
:1088F40000092D212846FFF7FBFE07F00302022A98
:1089040005D1BAF1000F02D1002C4DD10024CDE9DC
:10891400004753460A2249462846FFF7F9FEAFE7C7
:10892400732954D016D87029AAD1D8F800301A1D4A
:10893400C8F80020302128461C68FFF7D9FE7821AA
:108944002846FFF7D5FE00220823CDE90032214650
:108954001022E1E775292FD0782991D1D8F8001099
:108964000A1DC8F80020CDE90047534610222CE028
:10897400D8F800301A1D1978C8F800202846FFF7E7
:10898400B7FE7DE70A230BF1010B92FBF3F295E7A7
:10899400A345A9D220212846013CFFF7A9FEA0E760
:1089A4007807AAD52B21A5E7A345B0D230212846C4
:1089B400013CFFF79DFEA7E7D8F80010CDE900477A
:1089C4000A1DC8F8002053460A220968A4E7D8F80B
:1089D40000301A1DC8F80020F907D3F8009012D50A
:1089E4004F46A7EB090B17F8011B41B9A345BFF488
:1089F40047AF20212846013CFFF77AFEF6E72846D8
:108A0400FFF776FEEDE7B9F1000F17D0484606F000
:108A1400F0FC0746BC4200D954B909F1FF3919F8F2
:108A2400011F00293FF42CAF2846FFF761FEF6E74B
:108A340020212846013CFFF75BFEEBE74F46E9E7C0
:108A440003B0BDE8F08F000007B50B4678B9104BB2
:108A5400104A18880E2300930F4B00040F4940F06E
:108A64000100FDF7AFFF0E2003B05DF804FB3BB936
:108A7400074B0B4A18880E2300930004064BEDE7BE
:108A840003601B68114603B05DF804EB184700BF90
:108A9400CC2A0020B8F802000BF80200BDF802004E
:108AA40034F902002DE9F34178B9354B354A188879
:108AB400354B0E2400040094344940F00100FDF7C6
:108AC40081FF204602B0BDE8F0813AB92C4B304A10
:108AD40018882D4B0E2400040094EDE7D0F800C054
:108AE400BCF1000F07D1264B2A4A1888264B0824CC
:108AF40000040094E0E73BB9214B274A1888224B35
:108B0400092400040094D7E74768D7F80480B3FB2E
:108B1400F8F708FB17373FB1194B204A18881A4B4E
:108B2400092400040094C7E78F0707D0144B1C4A9C
:108B34001888154B102400040094BDE712F0030FAD
:108B440007D00F4B174A18880F4B102400040094C9
:108B5400B2E7C768B9420BD34C1E05691C44AC424A
:108B640006D8DCF80C40A44602B0BDE8F0416047EA
:108B7400034B0D4A1888044B1024000400949BE70F
:108B8400CC2A0020B8F802001DF80200BDF802004B
:108B94003AF902002EF90200EDF8020040F9020051
:108BA4006AF9020082F90200A5F90200F7B570B96A
:108BB400254B264A1888264B0E2400040094254988
:108BC40040F00100FDF7FEFE204603B0F0BDD0F8F2
:108BD40000C0BCF1000F07D11B4B1F4A18881C4B67
:108BE400082400040094EAE73AB9174B1B4A188892
:108BF400174B092400040094E1E74768D7F800E024
:108C04000EF1FF370F4207D00F4B154A1888104B4F
:108C1400102400040094D2E7C768B9420CD34C1E58
:108C240005690EFB0244AC4206D8DCF81040A446A9
:108C340003B0BDE8F0406047034B0A4A1888044B70
:108C4400102400040094BAE7CC2A0020B8F80200EB
:108C540030F80200BDF802002EF90200EDF802001F
:108C640043F8020069F802002DE9F04108B10368F5
:108C7400C3B90E4E0E4B14229B1B0024B3FBF2F31C
:108C8400374602FB03F5A54201D1002008E03B5919
:108C940030190BB91434F6E7DB6998470028F9D08A
:108CA400BDE8F081DB69BDE8F0411847E02A002007
:108CB400F42A002029DF704728DF704770B5036865
:108CC4009D6886B004460E466DB1142200216846A4
:108CD40006F03AFBA3680593237901962BB1012B87
:108CE4000DD06846A84706B070BD01238DF800304A
:108CF40023690293E368039363690493F1E702230E
:108D04008DF80030E3681B030293F5E708467047CB
:108D140000207047024B187A003018BF01207047BA
:108D240090330020034B187A0122B0FA80F05A7471
:108D3400400970479033002008B510461A4606F0E3
:108D4400DAFA002008BD000008B514220021044806
:108D540006F0FAFA0348FFF710FB002008BD00BF35
:108D640090330020142B002010B5094C094B4360AC
:108D74002046FFF747FC40B906F040F81C23207456
:108D84008C2205490548FFF7E5FA002010BD00BF15
:108D940090330020DCF9020004330020142B00205F
:108DA40070B5244D244E2B7A2C463BB923492448D4
:108DB400FFF73FFB306008B9686070BD022323727F
:108DC40033681A7972B1012A24D018460321FFF7B7
:108DD40075FF00232372636018491948BDE8704089
:108DE400FFF752BBD3E90520121AB2F5805F28BF02
:108DF4004FF48052D3E903159208012A014438BF85
:108E040001222844FFF756FF50B11128DDD1012378
:108E14002372D2E7D3E903021044FFF74DFFF3E7CF
:108E2400237C002BC9D10146BDE87040022000F02C
:108E340009B800BF90330020A8330020A4330020D9
:108E4400142B002038B5831E012B45D8234C237ADC
:108E5400002B41D0022B09D1032830D0204B1B68B2
:108E64000022E2601A793AB1012A22D0637C7BBBEA
:108E7400BDE83840FFF794BFD3E905128D1AB5F564
:108E8400805F94BF521902F580529A619142EDD1EC
:108E940002284FF0000308BF19462372104B18BF75
:108EA4000D211868FFF70AFF0E490F48FFF7ECFA87
:108EB400DCE71A6901321A615B699A42E7E7E36801
:108EC4000133082B01D8E360D0E70023E360DFE738
:108ED400BDE8384005F082BF38BD00BF90330020A4
:108EE400A8330020A4330020142B002000F0FD033D
:108EF400012B08D1044B00225A74421E50425041A7
:108F04001874FFF74DBF70479033002010B5064C1E
:108F1400201DFFF777FB28B9637C1BB9BDE810401F
:108F2400FFF73EBF10BD00BF903300202DE9F34191
:108F340080460D460F4801A916461F46FFF73FFA23
:108F44000446A8B11C22002106F0FEF92D0B0123D2
:108F5400237101A9C4F80080A760E5606661054833
:108F6400FFF757FAFFF7D2FF002002B0BDE8F08107
:108F74000420FAE7142B00202DE9F74381468846A4
:108F8400104801A917461E46FFF719FA0446B0B166
:108F94001C22002106F0D8F900250A9BA36001A930
:108FA4002571C4F80090C4E9037866610548FFF7A9
:108FB40030FAFFF7ABFF284603B0BDE8F083042086
:108FC400FAE700BF142B0020FFF725BBF8B546795C
:108FD4000146721E0546002393422D6803D30024E4
:108FE400A64202D8F8BD0133F6E70F682846FFF71A
:108FF4004CFB01343946F3E72DE9F843868ACD1C4E
:109004000746FFF71FFB043E35440446B5FBF6F55F
:10901400F0B14FF48073EDB28380C680013D0760E8
:1090240081464FF00008A84512D23846FFF70AFBE4
:10903400064648B163790133637108F10108C9F840
:10904400000007608146EEE72046FFF7BFFF344685
:109054002046BDE8F88301210430FFF7BDBA10B5FE
:10906400012104460430FFF7C2FA10F0FF0F04D1C7
:109074002046BDE81040FFF7A9BF10BD2DE9F84315
:10908400C7880546181D8846B0FBF7F4164607FB4B
:1090940014003CB9A7EB0009B14528BFB14626B975
:1090A400BDE8F8832D68013CF3E70430A6EB09061C
:1090B4004A4608EB0401284406F01DF9B7424C4423
:1090C4002D68B9464FF0000028BFB146E7E72DE907
:1090D400F843C7888846191D0546B1FBF7F41646C0
:1090E40007FB14113CB9A7EB0109B14528BFB146F0
:1090F40026B9BDE8F8832D68013CF3E7043129441F
:10910400A6EB09064A4608EB040006F0F4F8B74259
:109114004C442D68B9464FF0000128BFB146E7E73B
:1091240041DF7047064B10B500241C70054B1C60D2
:10913400BFF35F8F0449054800F030F8204610BDA6
:10914400B4330020B833002018FA0200AC330020F6
:1091540007B502A8002300F8013DFEF7AFF9F1EED0
:10916400103A23F09F03E1EE103ABFF35F8F0A4BEE
:109174004022C3F884219DF80700FEF7C3F905F0E7
:109184003DFE20B1FFF7CCFF03B05DF804FB20BF28
:1091940040BF20BFF8E700BF00E100E00B684A6869
:1091A4004360934208BF0023016008BF43607047D7
:1091B400436843B10268916852680B449342436028
:1091C40004BF0023436070470D4930B5A1F5947284
:1091D4000225914201D800200EE08B1ADB1093FB8C
:1091E400F5F302EBC30452F83330834205D802D2BC
:1091F40004F10802EDE7606830BD2146E9E700BFED
:1092040068FB020008B5FFF7DFFF024B002808BF28
:10921400184608BD2DFA0200054B1B68082B01BF38
:10922400044B1868B0FA80F0400918BF002070475A
:10923400300100103401001008B54FF080430022C3
:10924400C3F80C21C3F81021C3F838254FF080521D
:1092540003F54043D2F80414C3F82015D2F80814D7
:10926400C3F82415D2F80C14C3F82815D2F8101436
:10927400C3F82C15D2F81414C3F83015D2F8181406
:10928400C3F83415D2F81C14C3F84015D2F82014CE
:10929400C3F84415D2F82414C3F84815D2F8281496
:1092A400C3F84C15D2F82C14C3F85015D2F8301466
:1092B400C3F85415D2F83414C3F86015D2F838142E
:1092C400C3F86415D2F83C14C3F86815D2F84014F6
:1092D400C3F86C15D2F84424C3F87025FFF79CFF3B
:1092E40010B1384B384A1A60FFF796FF18B1374B64
:1092F400FB22C3F81825FFF78FFF48B13449354BDB
:109304000A681B6822F00F0203F00F0313430B607B
:10931400FFF782FF18B1304B4FF400721A604FF020
:109324008043D3F80024D20744BF6FF00102C3F88E
:1093340000242A4AD2F8883043F47003C2F88830F3
:10934400BFF34F8FBFF36F8F4FF01023D3F800227A
:10935400002A03DBD3F80432002B2FDA204B01223E
:10936400C3F80425D3F80024002AFBD04FF01022C0
:109374001221C2F80012D3F80024002AFBD04FF0C7
:1093840010231222C3F80422154B1A46D3F80014F2
:109394000029FBD00021C3F80415D2F80034002BB7
:1093A400FBD0BFF34F8F0D490E4BCA6802F4E06245
:1093B4001343CB60BFF34F8F00BFFDE70A4B0B4A4B
:1093C4001A6008BD8C5600404881030000F000403C
:1093D400E40E0040580200104096024000ED00E008
:1093E40000E001400400FA05282B00200090D0037F
:1093F400074B1B5C1F2B8ABF064A4FF0A04203F0A9
:109404001F03D2F80405D840C04300F001007047A0
:1094140026FF020000030050074B1B5C1F2B86BF76
:1094240003F01F0305494FF0A041012202FA03F3A0
:10943400C1F80C35704700BF26FF0200000300503E
:10944400074B1B5C1F2B86BF03F01F0305494FF01E
:10945400A041012202FA03F3C1F80835704700BFA6
:1094640026FF02000003005008B50020FFF7E8FFC4
:109474000120FFF7E5FF0220FFF7E2FF0320BDE82C
:109484000840FFF7DDBF08B50020FFF7C5FF012046
:10949400FFF7C2FF0220FFF7BFFF0320BDE808402B
:1094A400FFF7BABF0A4B185C1F288ABF094B4FF05D
:1094B400A04300F01F00D3F804250121814021EAD4
:1094C40002000A40C3F80805C3F80C25704700BF22
:1094D40026FF020000030050074B1B5C1F2B8ABFB2
:1094E400064A4FF0A04203F01F03D2F81005D840FB
:1094F400C04300F00100704722FF02000003005047
:109504000B2809D00C2809D0182809D019280CBF19
:1095140003204FF0FF307047002070470120704750
:1095240002207047014B185C704700BF22FF020005
:10953400C20710B504460CD54FF0A0430322C3F86C
:109544003427C3F83827C3F83C27C3F84027FFF76C
:109554008BFFA3070AD54FF0A0430C22C3F82C2796
:10956400C3F83027C3F86027C3F8642710BD000090
:1095740038B5084C04F108030546002818BF1C46FA
:1095840023682BB11A6822605B6828469847F7E77E
:1095940038BD00BFC433002020B9054B01225A70E6
:1095A400FFF7E6BF012802D1014A9070F8E770473F
:1095B400BC33002020B9034B01225A70FFF7D8BFF7
:1095C400704700BFBC33002038B50B4C237883B9F7
:1095D4000A486360A3602361E36000F05FF8054616
:1095E40005F00CFC08B900F067F801232370284645
:1095F40038BD8525FBE700BFBC3300209D950200E4
:1096040037B502A80023094C00F8013DFDF756FFC9
:10961400E368013BE360E56815B900F061F8A57003
:109624009DF80700FDF76EFF03B030BDBC3300208A
:10963400012813B509D003D303281BD002B010BDF1
:109644000F4B0122C3F88020F8E702A800230D4C39
:1096540000F8013DFDF732FF23780BB9FFF7B4FFA3
:10966400E3689DF807000133E3600123A370FDF76D
:1096740049FFE3E700F020F8FFF7C2FFDEE700BF91
:1096840000E100E0BC33002000F18040002382B000
:10969400036003680193019B02B07047054A137984
:1096A4002BB9012110601171537118467047852040
:1096B400704700BFD0330020084B1A68D20706D485
:1096C400E02283F800230122C3F880211A604FF0BE
:1096D40080430122C3F81825704700BF00E100E071
:1096E400044B01221A604FF08042D2F81834DB0395
:1096F400FBD470470C000040124B1B6810B573B1CB
:109704004FF48070FFF7C0FF4FF080430122C3F88D
:1097140008230D4B587910B95A711B6898470B4BA5
:109724001B6873B14FF48270FFF7AEFF4FF08043B4
:109734000222C3F80823044B01201B68BDE8104033
:10974400184710BD00010040D03300200401004040
:1097540000F1804000F5C040002382B0036003683C
:109764000193019B02B0704703681F2B83BF03F072
:109774001F03036001484FF0A040704700030050EE
:1097840007B502AB43F8040D1846FFF7EDFF019B44
:1097940000EB8300D0F8003723F44033C0F80037DF
:1097A400D0F8003743EA0141C0F8001703B05DF870
:1097B40004FB0000054B4FF0FF32072843F820203C
:1097C40084BF1B1883F85820704700BFD83300208B
:1097D40010B5174C94F86A3043BBFF21E2180133EB
:1097E400302B82F83010F9D10021C8B2FFF7E2FF24
:1097F40001310C29F9D1062200210E4805F0A4FDFF
:109804000D4BE02283F806234022C3F880214FF455
:10981400BE701A60FFF79CFF084B4FF00042C3F87C
:109824000423012384F86A30002010BD0820FCE7DB
:10983400D83300203C34002000E100E00060004008
:10984400034B93F86A00003018BF0120704700BF33
:10985400D8330020F7B5404F3B18044693F9303015
:10986400002B944675DA8B78C3F34003002B15BFA5
:109874000025082508200C20854202D1042003B0CD
:10988400F0BD57F8252001324FEA850649D1381931
:1098940047F825C080F8305013B97B1983F8584035
:1098A4008B785A071BD4D8073DD502A840F8084D39
:1098B400FFF75AFF009B00EB8300D0F8003723F03A
:1098C4000203C0F800372548E20804F0070C01231E
:1098D40003FA0CF310F802C043EA0C0383548878AB
:1098E40091F800C010F002002AD006F1804303F57D
:1098F400C0432402D3F8102522F44F3222F44072DC
:10990400C3F810254FEA0C4CD3F8102504F47C540A
:109914000CF4403C44EA0C041443C3F81045002002
:10992400ADE70135A8E702A84A7840F8044DFFF7EF
:109934001BFF019B03F5E073920040F82320C2E76C
:10994400083D3D4495F8604044EA8C1C85F860C0AD
:1099540095E7082093E700BFD83300203C3400206B
:1099640073B5224C2518064695F93020072A1ADDCE
:10997400224492F858309B09032B10D102A840F8D6
:10998400046DFFF7F1FE019AD0F81035D340DB07E0
:1099940007D402213046FFF7F3FE02B070BD012B5D
:1099A400F7D00321F6E7D3B2072BF6D8930003F1DF
:1099B400804303F5C043D3F8100540F00100C3F819
:1099C400100502F14000800080B2FFF7C1FE0029BB
:1099D400E3D095F9303054F82330002BDDD0012347
:1099E40003FA02F2024BC3F80423D6E7D83300206B
:1099F4000060004007B502AB43F8040D1846FFF7BA
:109A0400B3FE019BD0F81005D84000F0010003B06C
:109A14005DF804FB2DE9F04F002489B0CDE9024440
:109A24005F4A604E604D01211368A2F5C040012BCE
:109A340080B206D1D6F804330B4202D0FFF788FE79
:109A44000C430432AA424FEA4101EDD1574B1B6843
:109A5400012B0ED14FF4BE70FFF77AFE4FF0A043F6
:109A640044F00044D3F810350293514BD3F8103529
:109A7400039314F0FF0F1AD04E4F002501263442F1
:109A840010D0AB0003F1804303F5C043D3F81005B5
:109A9400D3F8101557F82530C0F30520C1F3014160
:109AA40003B198470135082D4FEA4606E7D1002C4B
:109AB40072DA04AE0023049373604FF0FF33CDE9F0
:109AC40006333C4F4FF0010800252C467B1993F9CF
:109AD4006020531C47D0D2B222F0C00908A84FEA34
:109AE400D90300EB030B02F007011BF8080C08FA7A
:109AF40001F1084237D007EB0900920990F93000D0
:109B040057F820A0BAF1000F05D1032A2BD1F05C3D
:109B14000843F05401E0032AF9D001A8CDF80490D9
:109B2400FFF722FE019B03F5E07350F823301BF886
:109B3400180C0842C3F3014305D0022B13D1032AA6
:109B44000BD1114604E0032B0DD1032A05D10221C8
:109B54004846FFF715FE0134E4B2BAF1000F02D013
:109B640011464846D0470135042DAFD1A4B14FF07A
:109B7400A0430299D3F8102503F540739142D3F81A
:109B8400103502D10399994206D002920393049AA4
:109B9400059B0692079397E709B0BDE8F08F00BFD5
:109BA4000061004000600040206100407C61004092
:109BB40000030050D8330020014B1B68184700BF36
:109BC40044340020034B187810B901221A707047EE
:109BD400852070474C34002000F1804000F5E040BF
:109BE400002382B0036003680193019B02B07047B5
:109BF400F0B5514B514C1B6885B0DBB14FF482700A
:109C040094F82E20FFF7E8FF12B194F82F30A3B197
:109C1400636802932389ADF80C30E36800218DF862
:109C24000410002B44D12374236801A8984700230F
:109C340084F82F3094F82E3003B3414B1B68EBB1FA
:109C44004FF48070FFF7C8FF94F82D20638B91B216
:109C54008B4238D95B1A21899BB26383CB1A616822
:109C640001EB4301374BC3F82C16C3F830264FF4ED
:109C74008270FFF7B1FF344B01221A60334B1B682B
:109C84005BB14FF48870FFF7A7FF002304A8237487
:109C9400022300F80C3D236898472D4B1B6813B32F
:109CA4004FF48A70FFF798FF0023237405B0F0BDCA
:109CB400208B608363602081E160002AB4D1214B52
:109CC40001221A60B0E7D2D1E368012184F82F1091
:109CD4003BB1002161831B49C1F82C36C1F8302601
:109CE400C5E76383C3E766694FF000470125002E8B
:109CF400DCD0B6FA86F227FA02F34632920026EA5C
:109D0400030602F1804303F5E0431B68002BEED009
:109D14001046FFF761FFA2F58C72D30882F00402AB
:109D2400C2F380028DF808308DF804508DF80920B4
:109D3400236801A89847DAE70471004050340020F2
:109D44000071004000700040047000401071004039
:109D54001471004038B51D4B044693F82C0098BB91
:109D64001B4A19602178C2F8F0156178C2F8F4151D
:109D7400E5781874012183F82C1083F82D005861BC
:109D840083F82F0083F82E506FF00043C2F8083395
:109D94004FF48270FFF720FF4FF48070FFF71CFF31
:109DA400A3780C485B01DBB280F807338023C0F84A
:109DB400803103600223C2F804330DB1C2F80413E6
:109DC400C2F80015002038BD0820FCE750340020FC
:109DD4000070004000E100E0244B1A7C30B5002AFA
:109DE40042D100F10C0403EB4402127922B993F836
:109DF4002D20013283F82D2003EB4403CA790C7A19
:109E04001A715C718D784B782D021B0105F4E065A5
:109E140003F030032B430D7805F003052B43CD7875
:109E24002D0305F480552B430D792D0405F4E0250D
:109E34002B434D7989792D0505F48015090601F028
:109E440080712B430B43010101F1804101F5E04195
:109E54000020C1F81835C1F81445C1F81025C1F81F
:109E64001445C1F8102530BD1120FCE75034002002
:109E7400054B93F82E30002B14BF0020042000F172
:109E8400804000F5E040704750340020264A274BBC
:109E940070B505461220C2F808031C7C022C03D1BD
:109EA400C2F80403112070BD187C01281DD1D868A4
:109EB40018B10223C2F80433F4E7DD60198393F880
:109EC4002E3063B91A4A1368002BFCD04FF480700B
:109ED400FFF782FE144BC3F82C56C3F83016124B0E
:109EE4000222C3F804230020DDE7022093F82E4069
:109EF400C2F80403012600201E745D601981D86035
:109F04003CB1598393F82D30C2F82C56C2F8303640
:109F1400C9E7C2F82C564FF48070C2F83016FFF728
:109F24005BFE20461660BEE70070004050340020FF
:109F3400007100402DE9F74F4FF0000ADFF89890C8
:109F4400204E07460425D0465FFA8AFB01240DF112
:109F5400070004FA0BF48DF80780FDF7AFFA14EA52
:109F6400090F08D0336814EA030201BF23433360A6
:109F740087F800B015469DF80700FDF7C3FAD5B978
:109F8400114B1249188800045A4640F00300FCF7AC
:109F940005FD0D4B28461C88FFF734F9240444F0D2
:109FA400030403460A4A0B492046FCF701FD2846F0
:109FB40003B0BDE8F08F39EA04090AF1010AC3D1FC
:109FC400E7E700BF80340020B42A002099FF020094
:109FD40052FF0200B0FF0200FFFF010073B50B4601
:109FE40089B382B301248440C4F31001174E31B302
:109FF400174909680C4224D0C4003588154904F176
:10A00400804404F5F8342D04C4F81035C4F814253C
:10A014000092024645F00300FCF7D4FC0024358886
:10A024002046FFF7EFF82D0445F0030503460A4ADE
:10A034000A492846FCF7BCFC204602B070BD072440
:10A04400EDE70824EBE70E24F6E700BFB42A00206E
:10A0540080340020CEFF020069FF0200B0FF02003E
:10A0640038B5012303FA00F0430C5B04C3B918B1FB
:10A074000D4B1B68184215D00C4B0025C3F8040582
:10A084000B4B28461C88FFF7BDF8240444F0030456
:10A094000346084A08492046FCF78AFC284638BD8E
:10A0A4000725EDE70825EBE78034002000F00140A8
:10A0B400B42A002081FF0200B0FF0200F7B5057941
:10A0C400334C0C266E43A7193B7A002B5ED1A25168
:10A0D4004A687A60467900681F46DAB296424BD8DD
:10A0E400020B53B2CE78002BA8BF03F16047D2B263
:10A0F4004FEA5313B8BF02F00F0C4FEA4616B4BF31
:10A10400244F07F561474FEA8303F6B203F1604336
:10A11400B4BF07F80C6087F8006303F561430126B8
:10A1240002F01F0206FA02F2C3F880211A60D0F886
:10A1340004254B7822F0030203F003031343C0F811
:10A144000435D0F808258B7822F0030203F00303CA
:10A154001343C0F80835D0F810250B7822F00F020D
:10A1640003F00F031343C0F810350C2303FB05441D
:10A174000020267203B0F0BD03F15002013340F811
:10A18400227050F822200192019AA6E70820F1E7F4
:10A194008434002014ED00E0036801221A6003797E
:10A1A400034A0C2101FB032302221A72704700BFE9
:10A1B400843400200368044901221A6103790C20C5
:10A1C40000FB03131A7270478434002037B54FF430
:10A1D40080348C4000687BB101F150039B00002562
:10A1E400C550C3580193019BC0F8044301F5A871FD
:10A1F40040F8212003B030BDC0F80843F6E7F0B4BE
:10A2040004689DF81070D4F8005240F201168E4094
:10A2140025EA0605C4F80052D4F800522B43C4F8CA
:10A2240000323B46F0BCFFF7D1BF00002DE9F341FB
:10A23400104C114F114E00254FF48038236804F55B
:10A24400C04080B26BB1D7F8043308FA05F21A4261
:10A2540007D00023236023680193019BD6E90031D2
:10A2640098470135062D04F10404E7D102B0BDE896
:10A27400F08100BF40A1014000A0014084340020CF
:10A284001F288ABF094B4FF0A04300F01F0003EBC7
:10A294008000D0F8003723F44033C0F80037D0F8FA
:10A2A400003743EA0141C0F800177047000300502B
:10A2B4000220FFF7F7B800002DE9F04781460D466C
:10A2C400FFF71EF90328044604D8012D04D024D333
:10A2D400022D2FD0BDE8F087194D47003A18A91870
:10A2E400AE5C4A7852B1DFF86880164842464FF4B3
:10A2F4000041FDF78FF808B988F800903B192B440A
:10A304009A78114B1A55002EE4D0104B1B68002B81
:10A31400E0D03046BDE8F04718470A48FDF7BEF8DC
:10A32400074B04EB440213449E78074B1B5DB34276
:10A33400D0D1E8E7024B00EB40041C446678E2E726
:10A34400F4340020B43400200D35002008350020FA
:10A354009034002002210078FFF7AEBF08B5094B06
:10A364001B7853B10020FFF76BF80120FFF768F862
:10A374000320BDE80840FFF763B8BDE80840FFF7D5
:10A3840073B800BF91340020F8B5794C23780546A2
:10A394001BB100232370FFF7E1FF172D00F2848027
:10A3A400DFE805F00C13133F5061727C84898489C3
:10A3B400919696969696C0C5CDD5E0E0FFF7CEFF70
:10A3C4006C4B00241C702046F8BD0020FFF710F8E9
:10A3D400F8B10020FFF734F8022D0CBF4FF4E1610F
:10A3E4004FF47A61634B1D704FF400404FF4FA74DC
:10A3F4000025E0FB01454FF47A72002320462946EC
:10A4040004F07EFE002201465B48BDE8F840FDF7FB
:10A4140001B8FFF701F8022D0CBFC8214FF4C87131
:10A42400E0E70020FEF7E4FF40B10020FFF708F862
:10A434004FF448714F4B03221A70D5E7FEF7ECFF37
:10A44400C821F7E70020FEF7D3FF38B10020FEF75C
:10A45400F7FF4FF47A61474B0422EDE7FEF7DCFF88
:10A464004FF4C871F7E70020FEF7C2FF48B100209F
:10A47400FEF7E6FF3F4B05221A7041F69A110022BF
:10A48400C2E7FEF7C9FFF5E70020FFF70BF8394BE9
:10A4940006221A70002240F6CD41B5E70020FEF7EF
:10A4A400BBFF344B07221A7000248CE70120207074
:10A4B400FEF7F8FFEEE701202070FEF7F3FF00221D
:10A4C4004FF48041A0E7FEF7DEFF2A4B0C22EAE7B7
:10A4D4002A482B4EFCF7E2FFD5F1110504461CD0A7
:10A4E400D8B9012D13D0C8235D434FF400474FF46E
:10A4F400FA7000214FF47A720023C7FB050104F0BF
:10A50400FFFD224601461D48FCF784FF0446022055
:10A51400FEF782FF0123337055E70220FEF790FF18
:10A524000023F8E7FFF71AFF124B1222BBE7FFF7ED
:10A5340015FF0020FEF770FF0E4B1322B3E7FFF761
:10A544000DFF0120FEF768FF0A4B1422ABE7FFF76B
:10A5540005FF0020FEF760FF0120FEF75DFF054BBD
:10A564001522A0E7FEF78FFF024B1D709CE700BF8A
:10A57400043500200C350020D4340020943400200D
:10A5840091340020044B1B68DB0703D5034B187878
:10A59400FFF7FABE704700BF003500200C350020DD
:10A5A400032801D8FEF798BF00207047044B1B68AE
:10A5B40013F0010301D0FFF7E7BE1846704700BF50
:10A5C4000035002038B51C4B18601C4B10F00204F9
:10A5D400054619601AD01A4B1A480E221A700F2217
:10A5E400DA7010229A7111225A72042140F26662C2
:10A5F400FCF714FC044648B9FCF764FC044628B98B
:10A604000146114A1148FCF7F3FE0446EB0711D545
:10A614000120FEF78DFF6CB921460D4A0D48FCF769
:10A62400E7FE044630B90C4A0C480121BDE8384025
:10A63400FCF7DEBE204638BD00350020083500207A
:10A64400F43400201400030059A30200380003006E
:10A6540089A502003C000300B5A2020034000300F7
:10A66400032812D8012A0BD1012908D100F10E02C6
:10A67400D2B200EB40000C4B1A5400207047002269
:10A684000129F6D009D3022901D007207047064BCF
:10A6940000EB400018444270EFE7034B00EB40002E
:10A6A40018448270E9E700BFF4340020032808B599
:10A6B40006D8FEF737FF0321FFF7E2FD002008BDAF
:10A6C4000620FCE708B5012202210020FFF7C8FF9D
:10A6D40008B1072810D1072202210120FFF7C0FF8B
:10A6E40008B1072808D100210A220846FFF7B8FF5D
:10A6F40010B1072808BF002008BD00000388102BF4
:10A7040010B502D0112B1ED010BD1A4C2168B1B95E
:10A7140001220846FFF7A4FF08B1072824D1072225
:10A7240002210120FFF79CFF08B107281CD1042255
:10A7340002210020FFF794FF08B1072814D12368F1
:10A7440001332360E0E70B4A1368013B1360002BDD
:10A75400DAD1FFF7B7FF0028D6D0074B1B68002BD0
:10A76400D2D0BDE810401847034B1B68002BE6D03D
:10A774009847E4E7183500201435002008B5002078
:10A78400FFF794FF08B1062806D10120FFF78EFFDA
:10A7940010B1062808BF002008BD00000D4B10B5FD
:10A7A40018600C4629B10120FFF7FAFE40B10223DC
:10A7B4002370094B1B6853B9BDE81040FFF782BFF3
:10A7C400FFF7EEFE08B10B23F2E72070F1E700205B
:10A7D40010BD00BF143500201835002076DF704707
:10A7E4007ADF70477CDF70477FDF70478FDF704709
:10A7F400B1DF704733DF70477047FCF779BB000067
:10A8040038B5064C064D21782A78914203D021466A
:10A81400044800F011FC23782B7038BDC945002092
:10A82400C84500204035002008B50020FFF7BEFED3
:10A8340008B1FCF75DFBFFF7A1FF08B1FCF758FB7B
:10A84400FFF7D8FF18B1BDE80840FCF751BB08BDBD
:10A854000388212B13B5044649D02AD8112B33D0B1
:10A86400132B54D0102B22D1314B324918880004B9
:10A8740040F00300FCF78EF80720FFF797FE08B1BD
:10A88400FCF736FB2C4BA1882C48198002F062FCA3
:10A8940008B1FCF72DFB2A48FFF77EFC00224FF499
:10A8A40000412848FCF7B6FD08B1FCF721FB02B0D3
:10A8B40010BD522B33D0562B01D03B2BF7D1132193
:10A8C400A088FFF78BFFEFE7194B1F491888000496
:10A8D40040F00300FCF75EF8174B19484FF6FF727F
:10A8E4001A80FFF767FC1748FCF7D8FDDCE7104B2C
:10A8F40016491888000440F00400FCF74BF802A93C
:10A90400002321F8043DA088FFF770FFCCE70A4834
:10A9140000231A4685210088FFF766FFC4E706482E
:10A9240000231A4619460088FFF762FFBCE700BF00
:10A93400B42A00204E0003002C2B0020BC4500202C
:10A94400840003001C350020580003006500030048
:10A9540008B503784BB9054B3B211888FFF73EFF38
:10A9640018B1BDE80840FCF7C3BA08BD2C2B002081
:10A9740030B54FF47A71ADF6AC7D05464068FFF70B
:10A9840085FA08B1FCF7B4FA234C22680523B2FB1C
:10A99400F3F303EB8303D21A1AD1204BC3F810212B
:10A9A4001F4A01211160D3F81021002AFBD0D3F8EB
:10A9B4000024012AFBD04FF0A042D2F80435D94339
:10A9C40001F4804103F48043C2F80815C2F80C3541
:10A9D4006B6802A99A1E084603F2CE7332F9025F2D
:10A9E40007EE905AF8EEE77A9A42E1EC017AF5D153
:10A9F40001AA4FF47A7104F02DFDDDED017A094AC4
:10AA0400FCEEE77A17EE903A137023680133236063
:10AA14000DF6AC7D30BD00BF3C3500200070004019
:10AA24000C700040C945002003780BB9FFF7A0BFA4
:10AA340070470000072808B513D00A280DD0042851
:10AA440019D10D4B13211888FFF7C8FE30F0080305
:10AA540011D0BDE80840FCF74BBABDE80840FFF749
:10AA6400E3BE054B1A884FF6FF739A4203D103489D
:10AA740001F0E3F9EAE708BD2C2B00204C35002057
:10AA840008B548B103280BD10220FFF78FFD38B178
:10AA9400BDE80840FCF72CBABDE80840FFF7C4BE87
:10AAA40008BD000008B50321044801F063F818B19B
:10AAB400BDE80840FCF71CBA08BD00BF4C350020B7
:10AAC40030B5037885B004460D2B10D8DFE803F0C9
:10AAD400070F110F220F2A390F350F3932391A4B4C
:10AAE4001A491888000440F00300FBF753FF05B02F
:10AAF40030BD154B40881D8801F0A2FB2D04227A3D
:10AB0400009245F003050246638811492846FBF785
:10AB140059FFECE704A9002301F8043D408803F041
:10AB240003F9E4E7FDF7C4FB30F00803DFD0FCF7DA
:10AB3400DFF9DCE7FFF7B6FFD9E700690028D6D0D4
:10AB4400F5E78068FAE700BFB42A00209F000300FD
:10AB5400C8000300FCF7CCB91FB5FFF733F808B100
:10AB6400FCF7C6F9002307228DF808308DF8093068
:10AB74008DF80B200393164A1648032302A98DF877
:10AB84000A30FFF79BFA08B1FCF7B2F9124BD3F87D
:10AB9400102500214FF47A50D2B220FA02F200912B
:10ABA40001230C48FFF72BFBFFF762F904460B481F
:10ABB400FFF7C0F908B1FCF79BF9084B084918786E
:10ABC4002246FFF70BFA08B1FCF792F904B010BD66
:10ABD400FDA702008400030000A00140B845002046
:10ABE40040A1014008B5054B1878FFF739FA18B1B0
:10ABF400BDE80840FCF77CB908BD00BFB84500209B
:10AC04001FB5144A10685168127A01AB03C3124984
:10AC140012481A70FFF79EF808B1FCF769F901A908
:10AC24000020FFF7D9F808B1FCF762F94FF47A7104
:10AC34000B48FFF72BF908B1FCF75AF94FF47A7176
:10AC44000848FFF723F908B1FCF752F905B05DF89D
:10AC540004FB00BF400003002DAA0200790003009A
:10AC640004360020D43D002008B50021044802F039
:10AC7400D1F818B1BDE80840FCF73AB908BD00BFE7
:10AC8400A445002000B54FF40041ADB00020FBF70F
:10AC9400B9FC08B1FCF72CF9FBF7E4FBFCF778FBF3
:10ACA40008B1FCF725F90121734A7448FCF7A0FBAD
:10ACB40073490320FFF786FC08B1FCF719F901A9D1
:10ACC4000020FFF76BFD08B1FCF712F9FEF72AFA32
:10ACD40008B1FCF70DF904F015F808B1FCF708F910
:10ACE400002301A90120019304F0D8F808B1FCF76E
:10ACF400FFF801A804F09AF908B1FCF7F9F82CACB4
:10AD04001123604804F8B03D04F073FB5D4982B23E
:10AD14002046FFF767FD08B1FCF7EAF80021082296
:10AD240001A804F011FB58494FF0C87301A8CDE9FC
:10AD34000113FFF755FD08B1FCF7DAF8FFF794FFAC
:10AD4400524B5348019301A902F0F2F908B1FCF700
:10AD5400CFF8504800F0C4F84F4B18680090AC226C
:10AD6400002101A804F0F0FA02238DF80430002336
:10AD74008DF8063005238DF807300123ADF85030E7
:10AD84008DF88030402244F25063CDE9232301A999
:10AD9400424B434815942A9300F082FE08B1FCF715
:10ADA400A7F801213E4800F078FE1C22002101A8EA
:10ADB40004F0CAFA00234FF42032CDE90132ADF891
:10ADC40012304FF470228DF81430364B03920693F0
:10ADD4000322354B8DF8102001A8079301F04EF99A
:10ADE40008B1FCF785F802F04BFF08B1FCF780F8D6
:10ADF4000522002101A804F0A7FA9DF8043043F0CD
:10AE04000103032203F0F10362F306136FF3C71384
:10AE14008DF8043007238DF8053010238DF80630A3
:10AE24009DF8073013438DF807309DF8083001A8CA
:10AE340013438DF8083002F06DFF08B1FCF758F8A1
:10AE44001A4802F04FFF08B1FCF752F8FFF7D8FE9A
:10AE5400FFF782FEFFF7C6FE154B1649188800045B
:10AE640040F00300FBF796FDFFF71CFEFBF730FCF8
:10AE7400FEF76EF9FAE700BF05A8020080000300A0
:10AE840039AA02008C0003005000A000FFA70200B2
:10AE9400BC450020403500204A00030085AA02007A
:10AEA4004C35002055A9020059AB0200C5AA020086
:10AEB400B42A002095000300A8DF7047AADF70477A
:10AEC400AEDF704762DF70470388102B02D0112B6E
:10AED40003D0704783880B8070474FF6FF73FAE7FF
:10AEE4002DE9F0414F4B9AB006AA03F1100704462E
:10AEF40094463E4618685968154603C50833BB4254
:10AF04002A46F7D14AF6CD330DF112016046ADF869
:10AF14001030FFF7D7FF08B1FBF7EAFF22464FF6E0
:10AF2400FF7322F8023B04A90120FFF7C5FF08B113
:10AF3400FBF7DEFF0AAA3B4B17461868596815460B
:10AF440003C50833B3422A46F7D11AAE4BF6EF6372
:10AF54000DF11601384626F8543DFFF7B3FF1C22C5
:10AF6400002113A804F0F0F99DF84C3002AF43F02F
:10AF74000A030322002138468DF84C3004F0E4F92A
:10AF84009DF80A301897012565F342038DF80A30BD
:10AF94009DF84C3003AF43F0100341F21118032223
:10AFA400002138468DF84C30ADF8088004F0CCF917
:10AFB4009DF80E30ADF80C8065F342031422002195
:10AFC4000EA88DF80E3004F0BFF91AAB002203F876
:10AFD400642D13A912930EAA231D6088ADF8445062
:10AFE400CDE90E67ADF84050FFF768FF08B1FBF7F5
:10AFF4007FFF0D49002000F019F9BDF810200B491E
:10B00400002000F0C1FA9DF812200949002000F048
:10B01400BBFA62880749002000F0B6FA1AB0BDE80E
:10B02400F08100BF08010300180103003701030089
:10B034004E0103006A01030070B502884FF6FF73E6
:10B044009A4286B004460E4617D0012500211022EC
:10B0540002A8ADF8065004F077F9A388ADF80830DB
:10B064000023ADF80C3002A90DF1060320888DF8F9
:10B074000A50CDE90436FFF723FF06B070BD03691B
:10B08400C1688B429DBF8268D21802F1FF3203F17E
:10B09400FF3394BF501A581A70472DE9F041D0E994
:10B0A40002670446F61B40689642884615463844B3
:10B0B40005D904F020F93D44E560BDE8F08132464D
:10B0C400AD1B04F018F92A4608EB0601606804F089
:10B0D40012F9F1E72DE9F843C56806468946174693
:10B0E4004FF000083469B3687068A54228BFE418BB
:10B0F400013C621B5C1BBC4228BF3C46944228BFF7
:10B10400144649462844224604F0F5F8B368254419
:10B11400AB4208BF00253F1BA044A144F560E1D128
:10B124004046BDE8F883000010B5114C114AA261F5
:10B134000223C4E90433104BE361A2644FF40073A7
:10B144000E4A2362E264002310220D49A362E01D2B
:10B154006362E362A3656365E365226504F027F92E
:10B164000849204604F023F92023A37110BD00BF31
:10B17400CC450020830103005446002044460020AF
:10B184008C01030090010300F8B5184C182300FB50
:10B19400033503FB00402544C46A012C0F461646C0
:10B1A40011D003D3022C1BD000240AE02846FFF759
:10B1B40066FF864205D8324639462846FFF76DFFBA
:10B1C40034462046F8BD2846FFF759FF86423446E8
:10B1D40028BF0446224639462846FFF75EFFF0E7BB
:10B1E4002846BDE8F840FFF775BF00BFCC450020F6
:10B1F40073B50D4B1B7804460D4616460BB9FFF785
:10B2040093FF02A8002300F8013DFCF757F93246EA
:10B2140029462046FFF7B8FF04469DF80700FCF7CF
:10B2240071F9204602B070BDCC45002038B5054602
:10B2340008460C4604F0DDF8214602462846BDE8DF
:10B244003840FFF7D5BFFFF76FBF826810B50446DB
:10B254004068531C834205D820688154A360E36886
:10B264000133E360D4E901329A420BD121682069A9
:10B27400FFF7BEFFA368984215BF4FF0FF330023CA
:10B28400E360A36010BD00002DE9F84F9A46DDE9A4
:10B294000A439046064689460A46012742451DD27E
:10B2A400574538BF574613F0010B12D18CB19B0799
:10B2B40018D5BAF1000F0CBF30252025A74208D2BB
:10B2C40029463046FFF7C1FFF368002B04F1FF3431
:10B2D4000ADAF368002B09DABDE8F88FB2FBF8F25A
:10B2E4000137DBE72025E9E7002CE7D10125BAF196
:10B2F400010F04D90AF1FF3A08FB05F5F7E7B9FB9A
:10B30400F5F39845F8D9DFF844A0B9FBF5F33046D6
:10B314001AF8031005FB1399FFF797FFF368002B46
:10B3240003DBB5FBF8F5002DEFD1BBF1000FD3D053
:10B33400002CD1D0A742CFD220213046FFF785FF81
:10B34400F368002B04F1FF34F2DAC5E79701030038
:10B354002DE9F04F9BB00AAB0D4605934021002325
:10B36400CDE90613CDE90830039016464FF00A09DB
:10B3740015F8011B00295CD025294CD14FF0000B96
:10B3840009E02D2B04D0302B0DD14BF0020B01E042
:10B394004BF0010B0D462B782B2B05F101010FD03F
:10B3A400EFD8232B0FD00024294611F8013BA3F139
:10B3B400300009280AD809FB0434303C0D46F3E771
:10B3C4004BF0040BE6E74BF0080BE3E72E2B0FD111
:10B3D4000D464FF0000A284610F8011BA1F1300772
:10B3E400092F07D809FB0A13A3F1300A0546F2E72F
:10B3F4004FF0000A284610F8011B01F0FB07682FE4
:10B404000546F8D0642936D009D8582926D06329AE
:10B414002CD025290AD105A8FFF717FF06E07329C8
:10B4240000F0988016D8702900F0A480089B002BA7
:10B434009EDA089B002B09DD079A1AB10AA9039822
:10B44400FFF7D6FEDDE907231344089308981BB0E1
:10B45400BDE8F08F752974D07829E7D13168CDE93A
:10B46400004B081D30605346102271E033681A1DEA
:10B4740032601978CFE731680F68081D87EAE771F1
:10B484003060A1EBE7714FF00108092941DCD04598
:10B4940038BFD0462CB1002F02DB1BF0040F00D0C4
:10B4A400013C1BF0020F02D0BAF1000F04D01BF0D4
:10B4B400010F01D1002C3CD108990029B6DB002FE3
:10B4C4003ADA7F422D2105A8FFF7BFFE089900292B
:10B4D400ACDB0BF0030102290FD1BAF1000F0CD140
:10B4E400002C4FD0A04508D2302105A8FFF7ADFEAF
:10B4F4000899002904F1FF34F2DA0899002995DB50
:10B50400CDE9004B53460A22394605A8FFF7BCFE95
:10B514008CE791FBF9F108F10108B6E7202105A8B1
:10B52400FFF793FE0899002904F1FF34C4DB002CD3
:10B53400C5D0A045F2D3BFE71BF0040FC6D02B2122
:10B54400C1E73168CDE9004B081D306053460A223B
:10B554000968DAE733681A1D32601C6814F8011BA5
:10B5640000293FF463AF05A8FFF76FFE089B002B8B
:10B57400F4DA5BE731680B1D336000220823CDE960
:10B58400003271E70024BBE70EB403B503AB02AA93
:10B5940053F8041B42F8043DFFF7DAFE02B05DF8ED
:10B5A40004EB03B070476DDF704779DF70477DDFD0
:10B5B400704764DF70472DE9F74F0C9CBDF834B039
:10B5C4002788002580468A4691462E46B8F80020F2
:10B5D400B2420BDC35B12288013AD21B92B2FF2A67
:10B5E40039D8DA55002003B0BDE8F08FD8F804202C
:10B5F40052F82600019000220DF1030101A8FFF783
:10B60400D8FF0028EFD19DF803204A4521D1228894
:10B61400002D14BF0020022002EB0901014459450A
:10B6240019DC3DB9013292B2228003F802A02288CB
:10B634000132228022880DF103011A4401A8FFF788
:10B64400B8FF0028CFD121889DF803200A44228026
:10B6540001250136BAE70C20C5E72DE9F341089C22
:10B66400BDF824501746CDE9004502220646FFF7EF
:10B67400A2FF48B9102239463046CDE9084502B048
:10B68400BDE8F041FFF797BF02B0BDE8F0812DE9B6
:10B69400F04F00231688138090F82D3085B00746AC
:10B6A4000D46144653B3082E01D80C2004E102A819
:10B6B400FFF779FF002840F0FF8013880822CA545E
:10B6C400238801339BB21B222380CA542088013073
:10B6D40080B2208006220DF10901284403F00BFEFC
:10B6E40023889DF8082006339BB212F0FE0218BF8F
:10B6F40001222380EA54238801332380BB78FBB1E1
:10B7040023880433B342D0D802A8FFF74EFF0028A1
:10B7140040F0D28023880322EA54238801339BB269
:10B7240019222380EA542388BDF8082001339BB2F0
:10B73400E9182380EA54120A4A70238802332380CA
:10B74400FA789AB12388D91CB142AED80221E954BF
:10B75400238801339BB201212380E95423880B44BD
:10B764009BB22380EA5423880B4423807A68AAB1CD
:10B774002388D91CB14298D8022192F90020E954B7
:10B78400238801339BB20A212380E954238801339F
:10B794009BB22380EA542388013323803B89002B06
:10B7A4007ED13B8A53B1CDE900462B4607220321C3
:10B7B40007F11000FFF751FF00287DD13B8B53B1F7
:10B7C400CDE900462B461522142107F11800FFF796
:10B7D40044FF002870D13A6A002A70D1D7F8248037
:10B7E400B8F1000F30D0B8F804302188981C8A1CB6
:10B7F4000244B2423FF659AFFE283FF656AF033338
:10B804006B54238801339BB2FF222380EA5423889C
:10B8140001339BB22380B8F80020EA54E918120AD5
:10B824004A702088023080B22080B8F804205AB1CF
:10B83400D8F8081000294CD0284403F05CFD238874
:10B84400B8F804201344238097F82C30002B7BD1C4
:10B85400387888B33B88012B3BD021888A1CB242BC
:10B864003FF623AF012805D17B7802330B449E4277
:10B87400FFF41BAF023E761A04A9B6B221F8086D94
:10B88400A818FFF794FEB8B93B78022B40F09F80CC
:10B89400BDF80830B34240F2B680ADF808609FE0CE
:10B8A400CDE900462B460622022107F10800FFF7E6
:10B8B400D4FE00283FF475AF05B0BDE8F08FB4F8AE
:10B8C40000C00CF10603B3423FF6EFAE1188052920
:10B8D40001D80720F0E76FF4486E01EB0E039BB22A
:10B8E4004FF27D3E7345F4D95388052BF1D96FF49B
:10B8F4004860181880B27045EBD94FF6FF7081424A
:10B9040003D0834201D09942E3D8052305F80C30D3
:10B91400238801339BB212212380E9542388013305
:10B924009BB223801188E954E818090A41702388DE
:10B9340002339BB223805288EA54E918120A4A70EF
:10B9440023880233238049E7BB6A002BC1D04FF020
:10B9540000094FF00C0A4FF0160B97F82C305FFAE1
:10B9640089F293427FF674AFB96A0AFB02F201EBE3
:10B974000208B8F80430981CFE283FF696AE2088DA
:10B9840003332B54238801339BB2238005F803B07F
:10B99400238801339BB223808A5AEA54E918120A95
:10B9A4004A702088023080B22080B8F804205AB14E
:10B9B400D8F8081000298CD0284403F09CFC238874
:10B9C400B8F804201344238009F10109C5E7012BC9
:10B9D4007FF463AF7B789E42FFF45FAFADF808302D
:10B9E4000821BDF80830FE2B3FF65FAE22880133F4
:10B9F400AB542288013292B22280A9542288134483
:10BA04002380002058E70921EBE770B5C0B14AB1A3
:10BA140016880024B44203D305196D789D4208D0DA
:10BA2400A14201D800200BE0055D01352C44A4B2ED
:10BA3400F0E7A142F6D9A31C1380005D013880B25F
:10BA440070BD37B502AC002324F8023D13462246EC
:10BA54000546FFF7DAFF10B1BDF80600284403B02D
:10BA640030BD72DF704773DF704774DF704738B5DD
:10BA7400012204460D46B0F89810D0F89400FFF760
:10BA8400E0FF00B1057004F13C0204F1940104F1FB
:10BA94005400BDE83840FFF7E4BF80F83010704729
:10BAA400F8B504460F46002960D000285ED091F80E
:10BAB4007A301BB191F89830002B59D107F17806F0
:10BAC4000FCE4FF0000C251D84F802C00FC50FCE19
